{
  "transactions": [
    {
      "hash": "0xf1a2ea9c2c1bc306b9c887667492077667d348922c2308658fc93c1430008989",
      "transactionType": "CREATE",
      "contractName": "EditionMinter",
      "contractAddress": "0xe102275a76cae3caff470fb6b4de9cfbad79bf61",
      "function": null,
      "arguments": [
        "0xC9FB42aF7b1c90D6AD881e20D99b70C2c3B23F6E"
      ],
      "transaction": {
        "from": "0xceb05ffa7b24fa374112c431f9fe07650c89996d",
        "to": null,
        "gas": "0xe2d4e",
        "value": "0x0",
        "input": "0x60a03461011b57601f610c9838819003918201601f19168301916001600160401b038311848410176101205780849260209460405283398101031261011b57516001600160a01b0381169081900361011b576080527f3c7a207398ddd2f021fb7a4bbb30885545bdcf0f21488ce720cd5be6123bb700805460ff81166100d65760ff191660011790556000807f8be0079c531659141344cd1fd0a4f28419497f9722a3daafe3b4186f6b6457e03382828180a333908280a3638b78c6d81955604051610b6190816101378239608051816106c70152f35b60405162461bcd60e51b815260206004820152601360248201527f416c726561647920696e697469616c697a6564000000000000000000000000006044820152606490fd5b600080fd5b634e487b7160e01b600052604160045260246000fdfe6040608081526004908136101561001557600080fd5b600091823560e01c908163256929621461090d5781634f1ef286146107d9578163525557021461054557816354d1f13d146104ff578163715018a6146104c75781638129fc1c146104235781638da5cb5b146103f6578163aaf10f42146103ae578163ad9b80241461036f578163e22bc70e146101b3578163f04e283e14610144578163f2fde38b146100e8575063fee81cf4146100b257600080fd5b346100e45760203660031901126100e4576020916100ce610958565b9063389a75e1600c525281600c20549051908152f35b5080fd5b839060203660031901126100e4576100fe610958565b90610107610a8b565b8160601b15610139575060018060a01b0316638b78c6d819818154600080516020610b0c833981519152600080a35580f35b637448fbae8352601cfd5b839060203660031901126100e45761015a610958565b90610163610a8b565b63389a75e1600c528183526020600c2090815442116101a8575082905560018060a01b0316638b78c6d819818154600080516020610b0c833981519152600080a35580f35b636f5e88188452601cfd5b90503461036b578160031936011261036b5780359067ffffffffffffffff90602435828111610367576101e99036908301610973565b929091608084036103595760808385810103126103555785519160808301908111838210176103405786526001600160801b03908335828116810361033c57835261023660208501610a79565b6020840192818452610249898701610a79565b928986019284845260608801359461ffff86168603610338576060880195865264ffffffffff8091169116101561032a575092879592879592606098958c7f3f5df5f1d9ac80b7f886ba9aa0353a5f3f4958d1cb4301c7e83a178ac56f98ae9c9b6102b333610a40565b91526020528a8d2094511684549364ffffffffff60801b905160801b169164ffffffffff60a81b905160a81b169261ffff60d01b905160d01b169363ffffffff60e01b161717171790558186519687958652806020870152850152848401378181018301869052601f01601f19168101030190a180f35b895163bad8ef9560e01b8152fd5b8c80fd5b8880fd5b604182634e487b7160e01b6000525260246000fd5b8680fd5b8551633e5431b160e21b8152fd5b8580fd5b8280fd5b5050346100e457806003193601126100e4576001600160801b038160209361039d610398610958565b610a40565b602435825285522054169051908152f35b5050346100e457816003193601126100e4577f360894a13ba1a3210667c828492db98dca3e2076cc3735a920a3ca505d382bbc5490516001600160a01b039091168152602090f35b5050346100e457816003193601126100e457638b78c6d8195490516001600160a01b039091168152602090f35b9190503461036b578260031936011261036b577f3c7a207398ddd2f021fb7a4bbb30885545bdcf0f21488ce720cd5be6123bb7009182549160ff831661048e57505060ff1916600117905533638b78c6d81981905581600080516020610b0c8339815191528180a380f35b906020606492519162461bcd60e51b83528201526013602482015272105b1c9958591e481a5b9a5d1a585b1a5e9959606a1b6044820152fd5b83806003193601126104fc576104db610a8b565b6000638b78c6d819818154600080516020610b0c8339815191528280a35580f35b80fd5b83806003193601126104fc5763389a75e1600c52338152806020600c2055337ffa7b8eab7da67f412cc9575ed43464468f9bfbae89d1675917346ca6d8fe3c928280a280f35b83915060a03660031901126100e45761055c610958565b926024916001600160a01b03833581811691828203610355576044359160643560843567ffffffffffffffff81116107715736602382011215610771576105ae6105b49136908b818b01359101610a09565b92610a40565b90848a526020918252878a20549a64ffffffffff808d60801c1642106107c9578c60a81c1642116107b95784169a8b8b527f3c7a207398ddd2f021fb7a4bbb30885545bdcf0f21488ce720cd5be6123bb7028352888b20878c528352888b20868c52835261ffff808a8d205416908382018092116107a7578260d01c1610610797576001600160801b03168181029080820483149015171561078557341061077557853b1561077157875163731133e960e01b81528781019b909b52888b0185905260448b0152608060648b0152815160848b0181905289928b9290845b8381106107555750505081818460a4809484010152601f8019910116810103018183875af1801561074b57610737575b8697507f00000000000000000000000000000000000000000000000000000000000000001692833b1561035557869360449286519788958694633f9deab760e11b865285015283015234905af190811561072e575061071e5750f35b610727906109a1565b6104fc5780f35b513d84823e3d90fd5b959096610743906109a1565b9486906106c2565b85513d89823e3d90fd5b81810183015194810160a401949094528b94508c938201610692565b8980fd5b875163356680b760e01b81528790fd5b634e487b7160e01b8b5260118852898bfd5b88516303ed649160e21b81528890fd5b634e487b7160e01b8d5260118a528b8dfd5b885163124212e560e21b81528890fd5b8951630314872760e11b81528990fd5b9190503461036b578060031936011261036b576107f4610958565b60243567ffffffffffffffff8111610909576108166108259136908601610973565b61081e610a8b565b3691610a09565b92813b156108e657507f360894a13ba1a3210667c828492db98dca3e2076cc3735a920a3ca505d382bbc80546001600160a01b0319166001600160a01b0383169081179091557fbc7cd75a20ee27fd9adebab32041f755214dbc6bffa90cc0225b39da2e5c2d3b8580a2825192849084156108de576108d1946020839201845af4903d156108d5573d6108c36108ba826109ed565b945194856109cb565b83523d85602085013e610aa8565b5080f35b60609250610aa8565b505050505080f35b9151634c9c8ce360e01b81526001600160a01b0390911691810191909152602490fd5b8480fd5b83806003193601126104fc5763389a75e1600c523381526202a30042016020600c2055337fdbf36a107da19e49527a7176a1babf963b4b0ff8cde35ee35d6cd8f1f9ac7e1d8280a280f35b600435906001600160a01b038216820361096e57565b600080fd5b9181601f8401121561096e5782359167ffffffffffffffff831161096e576020838186019501011161096e57565b67ffffffffffffffff81116109b557604052565b634e487b7160e01b600052604160045260246000fd5b90601f8019910116810190811067ffffffffffffffff8211176109b557604052565b67ffffffffffffffff81116109b557601f01601f191660200190565b929192610a15826109ed565b91610a2360405193846109cb565b82948184528183011161096e578281602093846000960137010152565b6001600160a01b031660009081527f3c7a207398ddd2f021fb7a4bbb30885545bdcf0f21488ce720cd5be6123bb7016020526040902090565b359064ffffffffff8216820361096e57565b638b78c6d819543303610a9a57565b6382b429006000526004601cfd5b90610acf5750805115610abd57805190602001fd5b604051630a12f52160e11b8152600490fd5b81511580610b02575b610ae0575090565b604051639996b31560e01b81526001600160a01b039091166004820152602490fd5b50803b15610ad856fe8be0079c531659141344cd1fd0a4f28419497f9722a3daafe3b4186f6b6457e0a2646970667358221220bc97a8683cc40d3ef2e988143dfd7a8dcd47514caa1cf2f11b36f0db00706d5764736f6c63430008190033000000000000000000000000c9fb42af7b1c90d6ad881e20d99b70c2c3b23f6e",
        "nonce": "0x22",
        "chainId": "0x14a34",
        "accessList": null,
        "type": null
      },
      "additionalContracts": [],
      "isFixedGasLimit": false
    },
    {
      "hash": "0xcc11da811b7fec48817a773cfdc2fe13ea8573a479c27f3a2fda5b5d73f43d61",
      "transactionType": "CALL",
      "contractName": null,
      "contractAddress": "0xcac8ae0068ead605dd648eaaa2edb3588b07a9f0",
      "function": "upgradeToAndCall(address,bytes)",
      "arguments": [
        "0xE102275A76cae3CafF470FB6B4DE9CfbAD79bf61",
        "0x"
      ],
      "transaction": {
        "from": "0xceb05ffa7b24fa374112c431f9fe07650c89996d",
        "to": "0xcac8ae0068ead605dd648eaaa2edb3588b07a9f0",
        "gas": "0xcf24",
        "value": "0x0",
        "input": "0x4f1ef286000000000000000000000000e102275a76cae3caff470fb6b4de9cfbad79bf6100000000000000000000000000000000000000000000000000000000000000400000000000000000000000000000000000000000000000000000000000000000",
        "nonce": "0x23",
        "chainId": "0x14a34",
        "accessList": null,
        "type": null
      },
      "additionalContracts": [],
      "isFixedGasLimit": false
    }
  ],
  "receipts": [
    {
      "status": "0x1",
      "cumulativeGasUsed": "0x22cd79",
      "logs": [
        {
          "address": "0xe102275a76cae3caff470fb6b4de9cfbad79bf61",
          "topics": [
            "0x8be0079c531659141344cd1fd0a4f28419497f9722a3daafe3b4186f6b6457e0",
            "0x0000000000000000000000000000000000000000000000000000000000000000",
            "0x000000000000000000000000ceb05ffa7b24fa374112c431f9fe07650c89996d"
          ],
          "data": "0x",
          "blockHash": "0x4d1f77a38717f263032a52a91c9ee045cb90f8ddc916a62a7e85125e6159458a",
          "blockNumber": "0x8b7fe6",
          "transactionHash": "0xf1a2ea9c2c1bc306b9c887667492077667d348922c2308658fc93c1430008989",
          "transactionIndex": "0xa",
          "logIndex": "0x2",
          "removed": false
        },
        {
          "address": "0xe102275a76cae3caff470fb6b4de9cfbad79bf61",
          "topics": [
            "0x8be0079c531659141344cd1fd0a4f28419497f9722a3daafe3b4186f6b6457e0",
            "0x000000000000000000000000ceb05ffa7b24fa374112c431f9fe07650c89996d",
            "0x0000000000000000000000000000000000000000000000000000000000000000"
          ],
          "data": "0x",
          "blockHash": "0x4d1f77a38717f263032a52a91c9ee045cb90f8ddc916a62a7e85125e6159458a",
          "blockNumber": "0x8b7fe6",
          "transactionHash": "0xf1a2ea9c2c1bc306b9c887667492077667d348922c2308658fc93c1430008989",
          "transactionIndex": "0xa",
          "logIndex": "0x3",
          "removed": false
        }
      ],
      "logsBloom": "0x00000000000000000000000400000000000000000000000000800000000000000000000000000000000000000000000000000000000000000000000000000000000000000000000000000000000000000001000000000000000000000000000000000000020000000000000000000800000000000000000000000000000000400000000000000008000000000000000000000000000000000000000000000000000000000000000000000000020000000000010000000000000000000000000000000000000000000000000000000000000000000000000000000000000020000000000000000000020000000200000000000000000000000000000000000000",
      "type": "0x2",
      "transactionHash": "0xf1a2ea9c2c1bc306b9c887667492077667d348922c2308658fc93c1430008989",
      "transactionIndex": "0xa",
      "blockHash": "0x4d1f77a38717f263032a52a91c9ee045cb90f8ddc916a62a7e85125e6159458a",
      "blockNumber": "0x8b7fe6",
      "gasUsed": "0xae892",
      "effectiveGasPrice": "0x187e4",
      "from": "0xceb05ffa7b24fa374112c431f9fe07650c89996d",
      "to": null,
      "contractAddress": "0xe102275a76cae3caff470fb6b4de9cfbad79bf61",
      "l1Fee": "0xcb3e28e1e384",
      "l1GasPrice": "0x6542f9e",
      "l1GasUsed": "0xcc8c"
    },
    {
      "status": "0x1",
      "cumulativeGasUsed": "0x235b1c",
      "logs": [
        {
          "address": "0xcac8ae0068ead605dd648eaaa2edb3588b07a9f0",
          "topics": [
            "0xbc7cd75a20ee27fd9adebab32041f755214dbc6bffa90cc0225b39da2e5c2d3b",
            "0x000000000000000000000000e102275a76cae3caff470fb6b4de9cfbad79bf61"
          ],
          "data": "0x",
          "blockHash": "0x4d1f77a38717f263032a52a91c9ee045cb90f8ddc916a62a7e85125e6159458a",
          "blockNumber": "0x8b7fe6",
          "transactionHash": "0xcc11da811b7fec48817a773cfdc2fe13ea8573a479c27f3a2fda5b5d73f43d61",
          "transactionIndex": "0xb",
          "logIndex": "0x4",
          "removed": false
        }
      ],
      "logsBloom": "0x00000000000000000000000000000000400000000000000000000000000000000000000000000000000000000000000000000000000000000000010000000000000000000000040000800000000002000000000000000020000000000000000000000000000000000000000000000004000000000000000000000000000000000000000000000000000000000000000000000000000000000000800000000000000000000000000000000000000000000000000000000000000000000000000000000020000000000000000000000000000000000000000000000000000000000000000000000000000000000000000000000000000000000000000000000000",
      "type": "0x2",
      "transactionHash": "0xcc11da811b7fec48817a773cfdc2fe13ea8573a479c27f3a2fda5b5d73f43d61",
      "transactionIndex": "0xb",
      "blockHash": "0x4d1f77a38717f263032a52a91c9ee045cb90f8ddc916a62a7e85125e6159458a",
      "blockNumber": "0x8b7fe6",
      "gasUsed": "0x8da3",
      "effectiveGasPrice": "0x187e4",
      "from": "0xceb05ffa7b24fa374112c431f9fe07650c89996d",
      "to": "0xcac8ae0068ead605dd648eaaa2edb3588b07a9f0",
      "contractAddress": null,
      "l1Fee": "0x9904a837150",
      "l1GasPrice": "0x6542f9e",
      "l1GasUsed": "0x9a0"
    }
  ],
  "libraries": [],
  "pending": [],
  "returns": {},
  "timestamp": 1714052786,
  "chain": 84532,
  "commit": "63c9c33"
}